:02000000C42812
:10000800DF00030E8301A5000A08A6008A01500834
:10001800A0000B1D142883120B11063081008709DC
:1000280083120C1C48280C10FC308F0018308E00EE
:10003800A30A0319A40A80302406D00080302206BF
:100048005002031D29282108230203182D2805150D
:10005800482880302406D000803022065002031D34
:10006800372821082302031C462880302406D000A4
:1000780080305002031D4228FF302302031846280F
:1000880005114828A301A4012008D00026088A00E9
:0A009800250E8300DF0E5F0E090045
:0C00A20083122B088A002A088200080044
:0E00AE000E308312DD00DD0B5A280000080022
:1000BC000130831290000C10FC308F0018308E0031
:0E00CC0083160C14C0308B0083121014080031
:1000DA00823083168100063083128100A0308B00A3
:0200EA0008000C
:1000EC00831687018501831285018701831691018F
:0800FC00803091008715080017
:10010400C33083129F0540309F05F03083169F044F
:1001140083129F172D08D000D00D5010D00D501011
:1001240050089F041F1457209F149F1C9B280000F5
:1001340097281F101E08D100D00183161E08D00472
:060144000030D1040800A8
:10014A0051208A110A128000840AAA0A0319AB0AEA
:08015A00D003031DA5280800D5
:10016200FF308312A700FF30A800FF30A900FF3044
:10017200C3309F0540309F05F03083169F048312E1
:060182009F171F14080086
:1001880004216D205E207620B1201E30A1000030B1
:10019800A200013085060230DB000430DC00BA30F2
:1001A800DD00DD0BD528DC0BD528DB0BD5280000BE
:1001B800851DE1280130AC00E228AC012C080319A8
:1001C800E7288514E82885100730AD0082205108FB
:1001D800023C031DF1285008003C0318F62883123E
:0C01E8000516F82883120512C928F92812
:100208002130840004308312D000FF30AA0000306F
:06021800AB00A520080068
:0401FE004B3400344A
:040202000034003490
:02400E00D431AB
:00000001FF
