:02000000E129F4
:10000800DF00030E8301A8000A08A9008A0150082E
:10001800A1000B1D152883120B1106308100013039
:10002800870683120C1C49280C10FC308F001830EE
:100038008E00A20A0319A30A80302306D00080305C
:1000480025065002031D2A282408220203182E28F8
:100058008716492880302306D000803025065002B4
:10006800031D382824082202031C47288030230651
:10007800D00080305002031D4328FF3022020318AD
:10008800472887124928A201A3012108D00029087E
:0C0098008A00280E8300DF0E5F0E0900B6
:0E00A400D201D101D001D801D30100300800F3
:1000B2005B15DB1F63280130D300D201D101D001CF
:0800C200DA0DD20CFF3008003A
:0800CA00DA1FD2130030080018
:1000D200DB14DB1F7328FF30D300D200D100D00025
:0800E200DA0DD20CFF3008001A
:1000EA000130831290000C10FC308F0018308E0003
:0E00FA0083160C14C0308B0083121014080003
:100108008316870185018312870183169101803048
:06011800910087150800AC
:0C011E0007308312DD00DD0B9228080082
:10012A00FF308312AC00FF30AD00FF30AE00FF306D
:10013A00C3309F0540309F05F03083169F04831219
:06014A009F171F140800BE
:10015000A0015208031DBD285108D2005008D1004B
:10016000D001A0155208031DBD285108D200D101AD
:10017000A011201652080319CB282008D302031D12
:10018000031CCF280310D21BD328D00DD10DD20DC4
:10019000D30BC328CF280130DC005220D6280230F0
:0E01A000DC005920D6280430DC006520080061
:1001AE00823083168100063083128100A0308B00CE
:0201BE00080037
:0C01C00083122B088A002A088200080025
:1001CC00831203135008D8005108D000D101D2017A
:1001DC00D301DB01DC019630D300DA015008D100E9
:0C01EC005808D000D801D201A82008005B
:1001F800C33083129F0540309F05F03083169F045B
:1002080083129F173008D000D00D5010D00D501019
:1002180050089F041F148F209F149F1C152900004D
:1002280011291F101E08D100D00183161E08D00402
:060238000030D1040800B3
:10023E0083120313DB015308031D57080319762994
:10024E0052085606DA005708D3077E30031C3329AE
:10025E00D302031879293629D302031C7C295208AC
:10026E00D8005108DC005008DD00D817D61703104F
:10027E00D201D101D0011830A0005D1C50295408C4
:10028E00D00755080318550FD10756080318560FF7
:10029E00D207D20CD10CD00CD80CDC0CDD0C031018
:1002AE00A00B4429D21B6029D80DD00DD10DD20D33
:1002BE00D3035B1B501C7229D81F7229D00A031955
:1002CE00D10A0319D20A031D7229D20CD10CD00CFB
:1002DE00D30A03197929DA1FD21300307E2901308F
:1002EE0052207E29023069207E29043059200000D8
:0202FE000800F6
:1003000083120313DA015308031D5A145708031DFF
:10031000DA145A080319CC29033A031997295A18F1
:100320009429D61FCA29C829D21FC829CA29520808
:100330008039DA00D21356088039D6135A060319C9
:10034000A5295A080319C829CA29570853020319AD
:10035000AC29031CC029C429560852020319B32929
:10036000031CC029C429550851020319BA29031CCA
:10037000C029C429540850020319CC290318C429E0
:10038000DA080319CA29C829DA080319C829CA29A9
:1003900003140800031008000314031508000800E4
:1003A000E0208A110A128000840AAA0A0319AB0A03
:0803B000D003031DD029080051
:0A03B800D72075208420952008004E
:1003C2004422DC2184201E30A4000030A50001302C
:1003D200A6060030A7068230DC00DD30DD00DD0B32
:1003E200F029DC0BF029000000008312851DFC2996
:1003F2000130AF00FD29AF012F080319022AA6140C
:10040200032AA6100730B000FC20E6201A30D400E0
:100412006730D5001C30D6008130D7001F21003054
:10042200D4000030D5000030D6008030D7001F2124
:100432005008D4005108D5005208D6005308D700FE
:100442000030D0004030D1001C30D2008B30D300BD
:100452008021013003180030D00050080319332ADC
:0E0462002616342A261226088500E429372A99
:100488002230840006308312D0003D30AA000230AA
:06049800AB00D0210800BA
:04047A000034003416
:04047E004B340034C7
:04048200003400340E
:02400E00D431AB
:00000001FF
