:02000000C22814
:10000800DF00030E8301A7000A08A8008A01500830
:10001800A0000B1D142883120B11063081008709DC
:1000280083120C1C48280C10FC308F0018308E00EE
:10003800A10A0319A20A80302206D00080302406C3
:100048005002031D29282308210203182D2805150D
:10005800482880302206D000803024065002031D34
:10006800372823082102031C462880302206D000A6
:1000780080305002031D4228FF3021020318462811
:1000880005114828A101A2012008D00028088A00EB
:0A009800270E8300DF0E5F0E090043
:0C00A20007308312DD00DD0B542808003D
:0C00AE0083122A088A002908820008003A
:1000BA0057208A110A128000840AA90A0319AA0A77
:0800CA00D003031D5D280800AE
:1000D200823083168100063083128100A0308B00AB
:0200E200080014
:1000E4000130831290000C10FC308F0018308E0009
:0E00F40083160C14C0308B0083121014080009
:10010200831687018501831287018316910180304E
:06011200910087150800B2
:10011800FF308312AB00FF30AC00FF30AD00FF3082
:10012800C3309F0540309F05F03083169F0483122B
:060138009F171F140800D0
:10013E00C33083129F0540309F05F03083169F0415
:10014E0083129F172F08D000D00D5010D00D5010D5
:10015E0050089F041F1451209F149F1CB8280000A4
:10016E00B4281F101E08D100D00183161E08D0041B
:06017E000030D10408006E
:100184000421692072208C2081201E30A3000030BD
:10019400A4000130A5060030A6068230DC00DD3064
:1001A400DD00DD0BD328DC0BD32800000000831214
:1001B400851DDF280130AE00E028AE012E080319AA
:1001C400E528A514E628A5100730AF009F205108A4
:1001D400023C031DEF285008003C0318F3282516A1
:0E01E400F4282512250883128500C728F82864
:100208002130840006308312D000FE30A90000306F
:06021800AA005D200800B1
:0401FC000034003497
:040200004B34003447
:04020400003400348E
:02400E00D431AB
:00000001FF
