:02000000C32813
:10000800DF00030E8301A7000A08A8008A01500830
:10001800A0000B1D152883120B110630810001303A
:10002800870683120C1C49280C10FC308F001830EE
:100038008E00A10A0319A20A80302206D00080305F
:1000480024065002031D2A282308210203182E28FB
:100058008716492880302206D000803024065002B6
:10006800031D382823082102031C47288030220654
:10007800D00080305002031D4328FF3021020318AE
:10008800472887124928A101A2012008D000280882
:0C0098008A00270E8300DF0E5F0E0900B7
:0C00A40007308312DD00DD0B552808003A
:0C00B00083122A088A0029088200080038
:1000BC0058208A110A128000840AA90A0319AA0A74
:0800CC00D003031D5E280800AB
:1000D400823083168100063083128100A0308B00A9
:0200E400080012
:1000E6000130831290000C10FC308F0018308E0007
:0E00F60083160C14C0308B0083121014080007
:10010400831687018501831287018316910180304C
:06011400910087150800B0
:10011A00FF308312AB00FF30AC00FF30AD00FF3080
:10012A00C3309F0540309F05F03083169F04831229
:06013A009F171F140800CE
:10014000C33083129F0540309F05F03083169F0413
:1001500083129F172F08D000D00D5010D00D5010D3
:1001600050089F041F1452209F149F1CB9280000A0
:10017000B5281F101E08D100D00183161E08D00418
:060180000030D10408006C
:1001860006216A2073208D2082201E30A3000030B5
:10019600A4000130A5060030A6068230DC00DD3062
:1001A600DD00DD0BD428DC0BD42800000000831210
:1001B600851DE0280130AE00E128AE012E080319A6
:1001C600E628A514E728A5100730AF00A02051089F
:1001D600023C031DF0285008003C0318F42825169D
:0E01E600F5282512250883128500C828F9285F
:10020C002130840006308312D000FF30A90000306A
:06021C00AA005E200800AC
:0401FE000034003495
:040202004B34003445
:04020600003400348C
:02400E00D431AB
:00000001FF
